:100000000C9428010C9445010C9445010C94450175
:100010000C9445010C9475050C9445010C945A05FB
:100020000C9445010C9445010C9445010C94450138
:100030000C9445010C9445010C9445010C94450128
:100040000C9445010C9445010C9445010C94450118
:100050000C9466030C9445010C9445010C944501E5
:100060000C9445010C9445010C9445010C944501F8
:100070000C9445010C9445010C9445013230323208
:100080003130323530343831000105041410111587
:100090001212121212121212121212121212121240
:1000A0001212121212121212121212121212121230
:1000B0001212121212121212121212121212121220
:1000C0001212121212121212121212121212121210
:1000D0001212121212121212121212121212121200
:1000E00012121212121212121212121212121212F0
:1000F00012121212121212121212121212121212E0
:1001000012121212121212121212121212121212CF
:1001100012121212121212121212121212121212BF
:100120001212121212120000000000000000000063
:1001300000000000000000000000000000000000BF
:1001400000000000000000000000000000000000AF
:10015000000000000000000000000000000000009F
:10016000000000000000000000000000000000008F
:10017000000000000000000000000000000000007F
:10018000000000000000000000000000000000006F
:10019000000000000000000000000000000000005F
:1001A000000000000000000000000000000000004F
:1001B0000000000000000000000000010102020336
:1001C000070E19283D597EAEEA0203040506070909
:1001D0000B0D0F1216191D22272C32394048505A88
:1001E000646F7B8895A4B4C5D7EB030303030304B2
:1001F000040405050506060707080809090A0B0B8C
:100200000C0D0D0E0F101112131415161718191BC3
:100210001C1D1F2021232526282A2B2D2F31333565
:10022000383A3C3E414346494B4E5154575A5D6023
:1002300064676B6E72767A7E82868A8F93989DA1B0
:10024000A6ABB0B6BBC1C6CCD2D8DEE4EBF1F8FFAA
:1002500011241FBECFEFCDBFDFE3DEBF18E3A0E068
:10026000B8E3E9E1F0E302C005900D92A432B107D2
:10027000D9F728E3A4E2B8E301C01D92AF3CB2076E
:10028000E1F70E94D7160C94F6170C940000CF9358
:10029000DF93CDB7DEB72697CDBFDEBF90911C3878
:1002A00020917A3830917B3826573B4009F492E010
:1002B000843019F460934C3821C06623F9F0823001
:1002C00019F426E9261B622F26E0E0EFFFEADE01A3
:1002D000119601900D922A95E1F7E82FF0E0319701
:1002E000EE0FFF1F21E030E02C0F3D1FE20FF31F48
:1002F0000190F081E02DE90FF11D60832696CDBFBE
:10030000DEBFDF91CF910895813019F410924E38FD
:100310000895823019F460934D380895833019F4AC
:1003200060934B380895843011F460931B3808951E
:1003300081E008956111609321380895662389F062
:10034000813061F480917D3890915738891B681B0A
:100350006093573882E08093223803C0635E6093D5
:10036000203880912038873418F086E48093203834
:100370000895609345380895FF920F931F93CF938C
:10038000DF93EC018B01F22E20917A3830917B388B
:10039000232B31F0E0917A38F0917B38842F099546
:1003A000C0937A38D0937B38CD2B39F0E0917A38EE
:1003B000F0917B38B8018F2D099581E080935038FA
:1003C000DF91CF911F910F91FF900895DC019091E3
:1003D0005638983098F4E92FF0E0EE0FFF1FE15403
:1003E000F74CA083B1839F5F9093563828E049E093
:1003F000CD010E94BC018091563808958FEF089579
:10040000CF93DF93E0915638EE2359F0E150E0931B
:100410005638F0E0EE0FFF1FE154F74CC081D18158
:1004200002C0C0E0D0E0E0915638EE2349F0F0E0A1
:100430003197EE0FFF1FE154F74C8081918102C08C
:1004400080E090E02AE049E060E070E00E94BC01BA
:10045000CE01DF91CF9108950F931F93CF93DF9338
:10046000EC018B010E940002B801CE010E94E6015E
:10047000DF91CF911F910F910895CF93C0911D38B7
:10048000C1111BC0813C39F460E070E089E69CE05A
:100490000E942C0215C0823C39F460E070E083E6D3
:1004A00092E00E942C020CC0873B49F460E070E0AF
:1004B00082E89BE00E94E60103C0C1E001C0C1E008
:1004C0008C2FCF910895813C41F460E070E089E683
:1004D0009CE00E942C0280E00895823C41F460E0A0
:1004E00070E087EE9DE00E942C0280E00895873B3B
:1004F00041F460E070E088E89BE00E94E60180E063
:10050000089581E00895813C41F460E070E089E65F
:100510009CE00E942C0280E00895823C41F460E05F
:1005200070E082E39EE00E942C0280E0089581E06A
:1005300008958093813890938238609383387093C4
:100540008438089590E001C09F5F903168F4292FAE
:1005500030E0F901EE0FFF1F2E0F3F1FF901EB579F
:10056000F74C20812111F0CF903160F4292F30E039
:10057000F901EE0FFF1FE20FF31FEB57F74C8083DB
:1005800061837283089520E01CC0822F90E0DC011B
:100590001196AD01440F551FA40FB51FAB57B74CB3
:1005A0003C91FC01EE0FFF1F8E0F9F1FFC01EB57CC
:1005B000F74C308311968D919C9112978183928391
:1005C0002F5F2F3010F3822F90E0FC01EE0FFF1F02
:1005D000E80FF91FEB57F74C108211821282089531
:1005E0000F931F93CF93DF93D82F8B01C091563871
:1005F000C1500EC0EC2FEE0FFF0BE154F74C0190F1
:10060000F081E02DB8018D2F0995882329F0C15084
:10061000CC2384F781E001C080E0DF91CF911F916E
:100620000F91089508C060918638709187380E94B4
:10063000F0020E94C302809185388111F4CF0895A1
:100640000E94A2020895BC018091BA380E94200342
:1006500008951092BA3810925D3810925E3881E099
:100660008093503808959091BA3890689093BA3832
:10067000803171F490619093BA38292F2F7030E057
:100680002F30310594F49F5F9093BA3881E008953C
:1006900081110DC0892F8F7E8093BA3895FF09C0D4
:1006A00080648093BA3881E0089581E0089580E005
:1006B000089581E0089505C08EED96E20197F1F767
:1006C000822F2FEF280F8111F7CF08951F920F92DD
:1006D0000FB60F9211242F933F934F935F936F9315
:1006E0007F938F939F93AF93BF93EF93FF9381E09B
:1006F00080930B0680915B38882309F451C0E09108
:100700005A38E13039F5A0E0B1E191968C9191979A
:100710009096AC912091100630911106281B31095A
:1007200087FD3395B0E00E94C017DC01CB018058F3
:100730009F4FAF4FBF4F892F9A2FAB2FBB27BC01C5
:100740000024769567950794769567950794762F9C
:10075000602D0DC0609110067091110600247695F1
:1007600067950794769567950794762F602DF0E04E
:10077000EE0FFF1FDF01A554B74C6D937C93EA5435
:10078000F74C808191818617970708F401966817C6
:10079000790708F401978083918381E080935C3826
:1007A00081E080935B38FF91EF91BF91AF919F9172
:1007B0008F917F916F915F914F913F912F910F900A
:1007C0000FBE0F901F901895CF93DF9310925C3857
:1007D0009091100680915138890F80935138809103
:1007E0005938882309F458C11092593880915A38E1
:1007F00090915338992339F0E0E0F6E090819E7FA4
:10080000908310925A38811152C0809122388823E7
:1008100049F06091BB387091BC386093B6387093E2
:10082000B73804C06091B6387091B738605F7F4FB9
:100830000024660F771F001C660F771F001C672FB0
:10084000702D80E098E50E94981780912138680FFC
:10085000711D67507109769567956093583880913E
:100860004238882321F08150809342380AC06D318C
:1008700040F460E070E084E00E94200385E0809313
:100880004238809153388111FEC0E0E0F6E08EE1FD
:10089000868385E4828381E080935A3810925B38A6
:1008A000828581608287808581608087ECC081300D
:1008B00009F0E9C080912238882301F14091BD38C8
:1008C0005091BE384093B8385093B93880E014C086
:1008D000E82FF0E09A01205F3F4F3695279532953B
:1008E00022952F7023273F702327EE0FFF1FEE5C0A
:1008F000F74C208331838F5F883050F38091B83874
:100900009091B938409696958795929582958F707B
:1009100089279F7089279C0136952795C091573864
:100920000C2E000CDD0B2C0F3D1F23513140F90123
:1009300020937D3830937E3840913138A42FB0E039
:10094000AA0FBB1FAE5CB74C2D913C911197BC0117
:10095000621B730B9B018D939C934F5F4770409379
:100960003138220F331F220F331F820F931F409104
:10097000203850E09A012D5E3E4F2C1B3D0B220F7C
:10098000331F821B930B20E009C01816190614F4BC
:10099000019703C099230CF401962F5F2330A8F32D
:1009A00018161906ACF577239CF1209130381216F1
:1009B00024F4281B2093303856C0880F991F0397C2
:1009C000BC01002476956795079476956795079402
:1009D000762F602D91FF02C061587F4F660F672F01
:1009E000661F770B1616170614F061E070E080E1C1
:1009F000861B80933038495F5F4FE417F50724F476
:100A000080915238863979F185E00E9420032BC00D
:100A10009C012C5F3F4FF2F47723E4F420913038AF
:100A2000222334F4281B822F8450809330381BC03B
:100A30002CEE281B209330386CEF7FEF681B790B6E
:100A400075956795809158388F3168F086E00E94DF
:100A5000200309C0809158388E3128F060E070E0A2
:100A600087E00E942003E0E0F6E08DE1868385E5E3
:100A7000828310925A3810925B3882858160828717
:100A800080858160808780912238882329F0809139
:100A90002238815080932238DF91CF91089581E0F0
:100AA00080935201809151018111FCCF81E48093A8
:100AB000500108951F920F920FB60F9211248F9339
:100AC00081E080935301809355388F910F900FBE32
:100AD0000F901F9018958AB186958695869591E01E
:100AE000892781708093803808951F920F920FB6E6
:100AF0000F9211248F938BB188608BB981E0809322
:100B000054388F910F900FBE0F901F9018958093BF
:100B10008038882341F080E10E94330380E090E038
:100B20000E94230309C080E00E94330380915D3856
:100B300090915E380E94230310925D3810925E38C7
:100B40000895CF93DF931092553880915D3890913E
:100B50005E389C012F5F3F4F88279078822B932B24
:100B600080935D3890935E38C09180380E946B0509
:100B7000C81721F0109253380E948705C0915D3844
:100B8000D0915E3880915338882341F1BE0183E0D3
:100B90000E9420030E941203CF73DD27CD2B09F0A2
:100BA00069C010922F38E0E0F6E08DE1868385E59C
:100BB000828310925A3810925B38828581608287D6
:100BC000808581608087A0EAB0E08C9180618C9301
:100BD00083E0808380858160808739C08091BA38C6
:100BE000807F803B31F460E070E081E00E94200370
:100BF00004C0BE0181E00E9420038091BA3884FFC6
:100C000014C085FF04C0CE010E94230320C0689752
:100C1000F0F010925D3810925E3880628093BA389E
:100C200080E090E00E94230312C0882381F085FFBA
:100C300003C00E9429030BC0629748F08064809330
:100C4000BA3880E090E00E9423030E94290380913B
:100C50002F3881110BC0E0E0F6E092859160928719
:100C600090859160908791E0909359388F5F8F7154
:100C700080932F38DF91CF91089581E080935201C6
:100C8000809151018111FCCF89E580935001E0E012
:100C9000F6E080818E7F80830E946B058111FCCFFE
:100CA0000E942903E0E4F4E083898160838B109241
:100CB0005C38109255381092543822C0E0E5F0E0CC
:100CC0008081897F84608083808181608083889532
:100CD00080818E7F808380915438811110925338A7
:100CE00080915C38882339F081E0809322388093AA
:100CF00059380E94E4038091553881110E94A10562
:100D0000809153388111DACF82E080932238E0E479
:100D1000F4E08389887F838BE0E0F6E08DE18683D1
:100D200085E5828310925A3810925B388285816003
:100D30008287808581608087A0EAB0E08C918061A5
:100D40008C9383E080838085816080870E944F053B
:100D50000895E0E5F0E08081897F80838081816073
:100D60008083889580818E7F808308958F5F803314
:100D7000A8F080911F388330F1F1E4E0F4E0808145
:100D800080688083E4E2F4E08081806280838081F7
:100D90008061808383E080931F3808958F30A8F0AE
:100DA00080911F38823039F1E4E0F4E0808180687E
:100DB0008083E4E2F4E080818062808380818F7EA2
:100DC000808382E080931F3808958823A1F080916A
:100DD0001F38813081F0E4E0F4E080818068808316
:100DE000E4E2F4E080818F7D808380818F7E808348
:100DF00081E080931F380895E0910638F09107381C
:100E00003196FB70F460E0930638F09307388091D8
:100E100051388B5A80935138E491809151388E0F1C
:100E200008951F93CF93DF9382E00E945B03F894B1
:100E300080E490E00E94CF17853A79F0789480E0C2
:100E400011C0C12FD0E0CE018F5B9F4F0E94CF1702
:100E5000C15AD74C88831F5F01C010E01B3188F353
:100E6000789481E0DF91CF911F910895CF9382E034
:100E70000E945B03F894C0E00BC08C2F90E0FC0153
:100E8000E15AF74C60818F5B9F4F0E94D717CF5F6D
:100E9000CB3198F365EA80E490E00E94D71778940C
:100EA000CF910895CF93DF9300D01F92CDB7DEB7D7
:100EB00019821A8291E09B8390E0A7C0492F50E0ED
:100EC000BA01660F771F282F30E002C035952795AD
:100ED0006A95E2F72370E1E0F0E0EC0FFD1FE40F0C
:100EE000F51F3081222319F0213069F163C091117F
:100EF0000CC041E050E0032E02C0440F551F0A947D
:100F0000E2F7E0E4F4E041834683913061F441E0AC
:100F100050E0032E02C0440F551F0A94E2F7E0E2AE
:100F2000F4E041834683923009F06EC041E050E026
:100F3000BA0102C0660F771F3A95E2F7E0E2F4E0EB
:100F40006183668361C0911110C0E32FF0E041E03E
:100F500050E0032E02C0440F551F0A94E2F740935D
:100F60004204E05BFB4F28E02083913081F4E32FC3
:100F7000F0E041E050E0032E02C0440F551F0A94F8
:100F8000E2F740932204E05DFB4F28E0208392309B
:100F9000D9F5E32FF0E041E050E0BA0102C0660F5E
:100FA000771F3A95E2F760932204E05DFB4F28E05B
:100FB00020832AC091110CC041E050E0032E02C0F2
:100FC000440F551F0A94E2F7E0E4F4E041834583BF
:100FD000913061F441E050E0032E02C0440F551FF0
:100FE0000A94E2F7E0E2F4E041834583923061F451
:100FF00041E050E0BA0102C0660F771F3A95E2F770
:10100000E0E2F4E0618365839F5F933008F456CF9C
:101010002396CDBFDEBFDF91CF910895CF93C82F28
:101020008093523880937F3880915338811102C069
:101030000E945207C11119C010921F38E4E0F4E079
:1010400080818F778083E4E2F4E080818F7D8083EC
:1010500080818F7E80831092A10610922C0A1092BC
:101060002D0A8081877F808331C090912404C150F4
:10107000C53930F4E4E2F4E080818860808305C003
:10108000E4E2F4E08081877F8083809124049817D4
:1010900019F08CE00E945B032C2F30E0F901E5543D
:1010A000FE4FE491E093A106F901EA5DFE4FE49161
:1010B000F0E0E0932C0AF0932D0AF901E057FF4F7E
:1010C000E491E093A0008C2F0E94B606CF91089582
:1010D000CF93C0917F3890915238C91718F48FEF91
:1010E000890F06C09C1718F481E0890F01C08C2F6E
:1010F0004FEF480F242F30E0B90165547E4FFB01BC
:101100005491491750F49091A106911106C05F3F88
:1011100021F49FEF9093A10613C09091A10695171B
:1011200030F4E0EAF6E091819F5F918309C09091ED
:10113000A106591728F4E0EAF6E0918191509183D5
:10114000A9014A5D5E4FFA012491E0912C0AF091C9
:101150002D0A30E0E217F30748F4E0E0FAE024A5B6
:1011600035A52F5F3F4F24A735A70FC0E0912C0A6C
:10117000F0912D0A2E173F0740F4E0E0FAE024A595
:1011800035A52150310924A735A79091A106FB016F
:10119000649196130FC020912C0A30912D0AFA0108
:1011A0004491E42FF0E02E173F0721F40E940E082F
:1011B000C0937F38CF910895883041F41092B538AC
:1011C00010922A3880E00E940E0841C0813031F52B
:1011D00080912A38811109C060327105C0F18F5F9A
:1011E00080932A380E94290332C08130A1F46B3BDE
:1011F000710538F08F5F80932A3880E00E940E08D6
:1012000026C06115710519F16270862F880F8E5EF8
:101210000E940E081CC00E94000219C0813811F003
:10122000813EA9F491E090932A38813E31F4809177
:10123000B538865F8093B53805C08091B5388F5F2B
:101240008093B5380E9429038AE40E940E0880E04A
:101250000895982F990F88230CF49095892F08955D
:10126000F89488ED84BF81E0809300017894A8957C
:10127000FFCF80915C3881110E94E4038091553842
:1012800081110E94A1050895CF93DF930DC0809135
:10129000503881110FC08AEC98E00197F1F70E9455
:1012A00039090E941203CE01EC012197892B79F7AD
:1012B00081E001C080E0DF91CF910895CF93DF936B
:1012C000C82F811103C0CF5FDFE011C0D6EA0FC085
:1012D00088E10E940E088D2F90E00E94440980E072
:1012E0000E940E088AEF90E00E944409C150C1118B
:1012F000EFCF8AE992E00E944409DF91CF910895EF
:101300001F93CF93DF93C9E28C9FC12D1124C29507
:10131000CF70982F24E6C29F90191124DDEC9D9F79
:10132000D12D1124D695D695D6952D2F220F822F0B
:10133000880F880F820F192F181BCC2319F08C2FC0
:101340000E945E09C11102C0DD2319F08D2F0E9499
:101350005E09812F0E945E09DF91CF911F91089550
:10136000809158380E948009089580911C3890918E
:101370001D38911182E090E0FC01EA5EF74C20817B
:1013800020931A38FC01ED5EF74C80818093193868
:101390000895DF92EF92FF920F931F93CF93DF9305
:1013A000EC010E94B50930911A3860911938E0912A
:1013B0001D38F0E0EF5EF74C008180911C388823E7
:1013C00049F0013039F4832F90E0860F911D9595F7
:1013D00087953EC0432F50E0C417D507A4F1462F90
:1013E00050E04C175D078CF1811102C08C2F30C08A
:1013F000162F131BE02EF12C81E0E81AF108812F43
:1014000090E0B7010E94AC17D62E60937C38632F12
:1014100020E015C0129FC0011124B7010E94981747
:10142000630FFE01E61BF1091AF4F195E195F1094C
:101430004D2D469550E04E175F074CF42F5F201757
:1014400048F3862F05C0832F03C0862F01C0862F47
:10145000DF91CF911F910F91FF90EF90DF90089552
:1014600080934F380E940E080895CF93DF930E9417
:101470001107882309F45BC0EFE5F8E380818093CE
:101480001C38218186E198E3DC012C932281C3E1A1
:10149000D8E32883238140E158E3DA012C932481A7
:1014A000DC0111962C93258129832681DA0111967E
:1014B0002C932781DC0112962C9380858A83818569
:1014C000DA0112968C93828580931D3883858093F0
:1014D0004C38848580934B38858580931B3886856E
:1014E00080934E38878580934D38808980930B3860
:1014F0008189A9E0B8E38C93828911968C938389C2
:1015000080930838848980930D38858980932038AA
:10151000868980935738878980932138808D80937E
:101520000F38818D80930E38828D80934538DF91FE
:10153000CF910895CF93DF93EFE5F8E380911C38C6
:10154000808386E198E3DC012C912183C3E1D8E319
:101550002881228340E158E3DA012C912383DC01C6
:1015600011962C91248329812583DA0111962C91DF
:101570002683DC0112968C9187838A818087DA0129
:1015800012968C91818780911D38828780914C388A
:10159000838780914B38848780911B388587809121
:1015A0004E38868780914D38878780910B38808BA5
:1015B000A9E0B8E38C91818B11968C91828B8091FC
:1015C0000838838B80910D38848B80912038858BEF
:1015D00080915738868B80912138878B80910F3886
:1015E000808F80910E38818F80914538828F0E9444
:1015F0003607DF91CF910895CF93DF93EB018830C9
:10160000A9F410922B3880E00E940E088091803857
:10161000811162C080912B388F5F80932B3860E0FE
:1016200070E08CED98E00E94E60156C0982F907F04
:10163000903BA1F550912B38451760F19B01A9E52E
:10164000B0E60E94C017281B390B36952795820FEC
:10165000931F0024880F991F001C880F991F001CDE
:10166000892F902D6DE5689F9001699F300D1124A1
:10167000CE01821B930B029749F45F5F50932B3886
:10168000451750F187E30E940E0826C082E10E94B0
:101690000E0822C080E00E940E081EC0903E81F419
:1016A00080912B38882349F0481738F060E070E0CB
:1016B0008CED98E00E94E6010FC00E9400020CC071
:1016C0008A3051F46091B53880912B38F901099531
:1016D0000E949A0A0E94000280E0DF91CF91089553
:1016E00027E431E043E00E94FC0A089527E431E05A
:1016F00044E00E94FC0A089524E831E044E00E949E
:10170000FC0A08952AE931E041E00E94FC0A0895AC
:101710002EE931E042E00E94FC0A089529EB31E015
:1017200041E00E94FC0A0895409158384D31A0F0E4
:1017300080E001C08E5F282F30E0F901E75FFF44B1
:1017400090814917B8F7F901E85FFF44E081F0E0C4
:10175000E757FF4F8491089580E008950F931F93FA
:10176000CF939091583891509C3120F480E00E94A2
:10177000520799C0C82FC295CF708F70909153387F
:10178000911103C0C33008F0C2E0873030F4E82F75
:10179000F0E0E757FF4FE49159C0873011F5009111
:1017A000293810E00F5F1F4F0E94FC069DEC899FB7
:1017B000912D112496959695292F220F220F920F85
:1017C000891B9801280F311DC90166E070E00E9455
:1017D000AC1780932938E82FF0E0E757FF4FE491EA
:1017E00035C08830D1F480915338811102C0E3E0D4
:1017F00001C0EFE06E2351F48091293890E001960A
:1018000066E070E00E94AC1780932938E091293897
:10181000F0E0E757FF4FE49119C0809153388823D7
:1018200021F00E94940BE82F11C066958BEA689F07
:10183000812D11248695982F990F890F681BE62F0B
:10184000F0E0EE0FFF1FE757FF4FE491C33001F5C3
:101850004091283850E04F5F5F4F9A01A5E9B7EDFE
:101860000E94C017929582958F7089279F70892753
:1018700063E1689F9001699F300D1124CA01821BAA
:10188000930B80932838A82FB0E0AA50B045CC9194
:10189000CC2319F0C13021F002C0E0E001C0EE0F0E
:1018A0008E2F0E945207CF911F910F910895CF93D1
:1018B000C091523888E18C0F863908F080E00E9490
:1018C0000E0885E00E945B038C2F0E940E08CF91CA
:1018D00008950F931F93CF938B01883091F480E08C
:1018E0000E940E0860E080910F380E94AE0B1092AB
:1018F0004938012B09F05BC181E080935338C0E087
:1019000061C1813061F46931710508F452C180937D
:10191000533880910F380E94AE0BC0E053C1833022
:1019200079F580914E38882371F090914D3842ECD2
:1019300051E0949F9001959F300D11246217730719
:1019400010F080931E38602F80910F380E94AE0BEC
:10195000C091453882EC91E0C89F9001C99F300D3D
:101960001124CC2309F42EC12017310708F023C11C
:1019700060E070E08BE89EE00E942C02C0E022C193
:10198000813BF1F481E090E00E94C9090E940E08B9
:10199000C0914B38C11111C180911C38811103C015
:1019A00088E190E002C080E090E00817190708F491
:1019B00009C161E070E082EE9FE00E942C0202C14A
:1019C000813E41F461E070E082EE9FE00E942C02D3
:1019D000C0E0F8C0813849F480911E3890E00E9440
:1019E000C9090E940E08C0E0EDC0813C49F4609135
:1019F000523870E082EE9FE00E942C02C0E0E2C00C
:101A0000823B99F480911B3890911D3891118091FF
:101A10004C38811105C085E990E00E94C90901C0D8
:101A200085E90E940E08C0E0CDC0823E29F480E026
:101A30000E940E08C0E0C6C0823C41F465E970E037
:101A400082EE9FE00E942C02C0E0BCC0833929F4E2
:101A500080E00E940E08C0E0B5C0833C41F460E025
:101A600070E08DE392E00E942C02C0E0ABC0843CA9
:101A700051F40E94570C60E070E08BE89EE00E94F9
:101A80002C02C0E09FC08D3B11F40E9430098F3CB6
:101A900041F460E070E088E991E00E942C02C0E02F
:101AA00091C08A3BA9F4672B99F4C0911D38CC23CF
:101AB00041F00E94570C10921D380E949A0AC0E013
:101AC00081C060E070E086E79BE00E94E6017AC09A
:101AD000C0911D38C11173C08A3C41F40E94570C5B
:101AE00081E080931D380E949A0A6CC0833B39F4D0
:101AF00060E070E08FEC93E10E942C0263C0873CB1
:101B0000B9F420910F38922F92959F709F5F937038
:101B100030E1939FC00111242F70822B80930F38E6
:101B200060E00E94AE0B0E949A0A0E94570C4AC0C5
:101B3000873B59F581E080934A38C8018F73992714
:101B4000892BE9F430910F38232F2F702F5F85E711
:101B5000289F812D1124922F981B9695890F869589
:101B600086958695482F440F942F990F990F940FBF
:101B7000890F281B822F307F832B80930F38602F93
:101B800080910F380E94AE0B1DC0873E29F4109241
:101B90004A380E949A0A16C0853C99F40E94570C54
:101BA00060E070E08BE994E10E942C020BC0C0E081
:101BB00009C0C0E007C0C0E005C0C0E003C0C1E08C
:101BC00001C0C1E08C2FCF911F910F910895AB01FF
:101BD000813C41F460E070E089E69CE00E942C02C8
:101BE00080E00895823C41F460E070E083E892E098
:101BF0000E942C0280E00895813BD1F49B01369530
:101C00002795A1E1B2E40E94C01796958795969515
:101C10008795969587956EE3689F9001699F300D33
:101C2000112442175307D1F40E94570C80E0089505
:101C3000813EB1F49B0136952795A1E1B2E40E9463
:101C4000C0179695879596958795969587958F5FFA
:101C500080930D380E949A0A80E0089580E00895EC
:101C600081E00895AB01813C41F460E070E089E6D9
:101C70009CE00E942C0280E00895823C41F460E0E8
:101C800070E08DE392E00E942C0280E00895813B99
:101C9000D1F49B0136952795A1E1B2E40E94C017CB
:101CA0009695879596958795969587956EE3689F07
:101CB0009001699F300D112442175307D1F40E94FF
:101CC000570C80E00895813EB1F49B01369527952D
:101CD000A1E1B2E40E94C0179695879596958795E5
:101CE000969587958F5F80930C380E949A0A80E0C2
:101CF000089580E0089581E00895CF93C09152380F
:101D000080E00E940E0883E00E945B038C2F0E94FB
:101D10000E08CF9108950F931F93CF93DF93C82F91
:101D20008B01873B21F480E00E940E0821C080795E
:101D30008039C9F4909116388C2F8F70823059F405
:101D400020911738921708F0292F80914E38811171
:101D500007C0822F05C080911738891708F0892F96
:101D60000E940E0805C0803819F480E00E940E0819
:101D7000C83031F460E080910E380E94AE0B53C041
:101D8000C13071F40931110508F4A7C081E08093D6
:101D90005338602F80910E380E94AE0BD0E0A2C065
:101DA000C33039F4602F80910E380E94AE0BD0E022
:101DB00099C0C33C51F40E94570C60E070E089E682
:101DC0009CE00E942C02D0E08DC0C43CA1F4D091D4
:101DD0004E38DD2341F06D2F70E082EE9FE00E94CF
:101DE0002C02D0E07FC060911E3870E082EE9FE050
:101DF0000E942C0277C0C43B61F40E947D0E1092B9
:101E0000BA3861E070E082EE9FE00E942C02D0E0E0
:101E100069C0C53C41F465E970E082EE9FE00E9434
:101E20002C02D0E05FC0D0911D38D11158C0C73C02
:101E3000B9F480910E38982F92959F709F5F9370A0
:101E400040E1949F900111248F70822B80930E3873
:101E500060E00E94AE0B0E949A0A0E94570C42C09A
:101E6000C73B59F581E080934A38C8018F739927A1
:101E7000892BE9F430910E38232F2F702F5F85E7DF
:101E8000289F812D1124922F981B9695890F869556
:101E900086958695482F440F942F990F990F940F8C
:101EA000890F281B822F307F832B80930E38602F61
:101EB00080910E380E94AE0B15C0C73E29F41092D7
:101EC0004A380E949A0A0EC0CA3B59F460E070E09A
:101ED0008EE89BE00E94E60105C0D0E003C0D1E09F
:101EE00001C0D1E08D2FDF91CF911F910F91089507
:101EF000CF93AB01C0911D38C1115AC0883039F45D
:101F000010924938109246381092473858C0813B99
:101F100069F4809149388150833008F04BC083E0E8
:101F20008093493880934838C1E049C0853B31F5FA
:101F30009B0136952795A1E1B2E40E94C0179695C2
:101F4000879596958795969587956EE3689F9001FE
:101F5000699F300D11244217530789F58091493844
:101F60008A3F68F58B5F8093493880934838109298
:101F70004638109247380E94570C21C08130E1F456
:101F800080914638909147380196809346389093D7
:101F9000473888389E4098F010924638109247385B
:101FA00080914938882351F081508093493807C087
:101FB000C1E005C0C1E003C0C1E001C0C82F8C2F43
:101FC000CF910895AF92BF92CF92DF92EF92FF929E
:101FD0000F931F93CF93DF93C82F8B01B0901A38C4
:101FE000A090193880911C38882319F0C0907C3853
:101FF00002C0CC24C394F0901B3890911D389111ED
:10200000F0904C38FF2061F041E0F41659F08091D7
:102010001E388A1560F00F2EF5E9DF2EF02D08C06E
:10202000DA2C06C00F2EF5E9DF2EF02D01C0DA2CD8
:10203000E0904938B8018C2F0E94780FD091493830
:10204000DD2339F0E11005C08091523880932E389D
:102050000BC0EE2049F0D11107C060E070E089E6C6
:102060009CE00E942C0202C2C83011F0CA30E9F490
:1020700010924438CA3019F400911E3810E08B2DAC
:1020800090E08017910738F48A2D90E0081719071F
:1020900010F400931E38C8010E94C9090E94300A3A
:1020A00081E080930538D0E0E1C1C13C41F460E0BB
:1020B00070E089E69CE00E942C02D0E0D7C1C23CCF
:1020C00091F4809152388D1520F48D2D0E94300AA4
:1020D00004C080911E380E94300A8091523880934B
:1020E0002E38D0E0C3C1C43C59F480E00E940E08F1
:1020F00060E070E08BE89EE00E942C02D0E0B6C168
:102100008FE48C0F823008F08FC0D0911C38DD2313
:10211000D1F09801ABEABAEA0E94C0179295829575
:102120008F7089279F7089279C01220F331F820F90
:10213000931F880F991F880F991F880F991F0817E1
:10214000190709F084C1D11109C06091103870E0FD
:10215000C8010E949817892B09F088C10115110543
:10216000A1F4C23B21F48FEF809305383DC08091EC
:1021700052388A1520F08FEF8093053835C0B81695
:1021800098F181E0809305382FC08091103890E05D
:1021900046E351E0849F9001859F300D949F300D60
:1021A00011242017310740F4209152382A1520F0CD
:1021B0008FEF8093053818C04CE652E0849F900161
:1021C000859F300D949F300D11242017310760F446
:1021D00080915238B81640F00E94570C60E070E0D1
:1021E0008BE89EE00E942C023091523820910538F5
:1021F0004C2D2403C0011124830F911D0E94C90995
:1022000080931E3890915238891721F0A81202C08D
:102210000E947D0E80911E380E94300A80915238B3
:1022200080932E38D0E022C18FE18C0F823038F4B9
:1022300080910538819580930538D0E017C1C13071
:1022400009F057C00932110519F481E0809305386F
:10225000DD23B9F02D2F30E02150310940912E3887
:10226000429FC001439F900D11246091483870E057
:102270000E94AC17611101C061E060937F386093E8
:102280004F3880917F3890E020915238821B91091D
:1022900060912C3870912D386F5F7F4F60932C3890
:1022A00070932D38009709F4D4C02CF42E3730F4F5
:1022B00040E051E010C040E052E00DC040E450E08A
:1022C0000AC0569547959C01992314F42F5F3F4F00
:1022D000C901959587950097A1F74617570708F00C
:1022E000BAC00E94680810922C3810922D38D0E0A5
:1022F000BDC0C530F9F420915238293508F4ADC07D
:10230000822F90E0801B910B382F8835910524F0A7
:102310008639910518F403C038E501C035E926393E
:1023200029F485E90E940E08D0E0A0C030937F38E0
:10233000D0E09CC0C630C1F49091523880914F38A3
:10234000981708F08CC0090F111D90E080179107B5
:102350003CF00835110514F0C80102C088E590E092
:1023600080937F38D0E082C0C73099F490917F3855
:1023700080915238891728F48F5F80937F38D0E09E
:1023800075C0981708F06DC0815080937F38D0E0F9
:102390006DC0D0911D38D11166C0C33CC9F481E035
:1023A00090911C38911180E080931C380E949A0A09
:1023B0000E947D0E8091523890E00E94C90980935E
:1023C0001E380E94300A8091523880932E384EC0B9
:1023D000C33B69F4012B09F049C0FF2021F00F2E07
:1023E000F5E9DF2EF02D8D2D0E94300A3FC0C33E4F
:1023F00029F480911E380E94300A38C0C53C51F43F
:1024000080E00E940E0860E070E08BE994E10E9499
:102410002C022CC0C73B39F460E070E080E79BE001
:102420000E94E60123C0CA3C49F48091523880934F
:102430004E380E949A0A0E94570C18C0CA3BA9F451
:1024400060E070E08CE79BE00E94E6010FC0D0E006
:102450000DC0D0E00BC0D0E009C0D0E007C0D0E094
:1024600005C0D0E003C0D1E001C0D1E08D2FDF91E5
:10247000CF911F910F91FF90EF90DF90CF90BF9081
:10248000AF900895CF93C0E014C08C2F0E940E0827
:1024900083E190E00E9444098C2F86950E940E08EB
:1024A00083E190E00E9444090E946B05882329F093
:1024B000CF5FC03450F381E001C080E08823F9F0A1
:1024C00060917D3880915738681B81E00E949E01A1
:1024D0000E949A0AC5E908C08C2F0E940E0884E069
:1024E00090E00E944409C150C111F6CF0AC08C2F60
:1024F0000E940E088DE090E00E944409C150C11175
:10250000F6CFCF9108950F931F93CF93DF93C82FEA
:102510008B01D09149380E94780FDD2359F0D0917A
:102520004938D11107C060E070E089E69CE00E9464
:102530002C022FC1C83029F481E080930338D0E009
:1025400028C1C23C21F410924938D0E022C1C13BDD
:1025500021F5012B69F4809102388D3620F08FEF40
:102560008093033805C0823018F481E080930338EB
:10257000D091023880910338D80FD0930238D1110E
:1025800004C081E08093023804C1DE3608F4FAC04A
:102590008DE680930238D0E0FCC0C13E39F48091D2
:1025A0000338819580930338D0E0F3C0C23B69F4CF
:1025B00081E08093033880910238823008F4E4C0CF
:1025C000815080930238D0E0E4C0C13009F0DEC011
:1025D0000932110519F481E080930338809127387E
:1025E0000E94290990E0EC01CC0FDD1FCC0FDD1F0C
:1025F000CC0FDD1FC81BD90B809126380E942909FA
:1026000090910138989FC0011124CD2FC90F80915E
:1026100025380E94290990910038989FC001112403
:10262000C90F209102388C2F90E0820F911D2091CC
:102630004938213019F52091463830914738369580
:102640002795329522952F7023273F70232744E743
:1026500050E0421B530B849F9001859F300D949F47
:10266000300D1124AFE9B6E40E94C0179695879506
:10267000929582958F7089279F7089270E940E08F6
:1026800000FD08C00E94FC06817090912738890FD8
:10269000809327389091263880912438890F809331
:1026A00026380E94FC069FE6899F912D1124929561
:1026B0009F7025E2929F80191124982F80912538D0
:1026C000980F909325380E94FC068F7371F40E9436
:1026D000FC069FE4899F912D1124969596952DE0F7
:1026E000929F801911248093243880910138882387
:1026F00049F00E94FC068F7329F4809101388150C3
:10270000809301380E94FC06811119C00E94FC06CA
:1027100095E7899F212D1124982F921B9695920F52
:10272000969596959695392F330F232F220F220FCA
:10273000230F920F891B80930138109226388091C5
:102740000038833048F00E94FC068F7129F4809194
:1027500000388150809300380E94FC06D82FDF7724
:10276000B9F40E94FC069BEA899F912D112496954D
:102770009695292F220F920F292F220F821B8093CB
:10278000003807C0D0E005C0D0E003C0D1E001C0F0
:10279000D0E08D2FDF91CF911F910F9108950F936E
:1027A0001F93CF93DF93C82F8B01D0910B3881E01B
:1027B00080934438D33019F48C2F0E948312C83090
:1027C00029F481E08093043880E0B0C0C13C41F43A
:1027D00060E070E089E69CE00E942C0280E0A6C0E8
:1027E000C23C69F48D2F90E0019665E070E00E9494
:1027F000AC1780930B380E949A0A80E097C0C13BC7
:10280000B1F5D230C8F400FD86C08D2F90E0FC01F8
:10281000E75FF74C208130910438231B283018F0F3
:102820002F3F21F402C028E001C02EEFFC01E75F3A
:10283000F74C208380E07AC0D43009F06EC09091CC
:10284000083880910438890F80930838823020F44A
:1028500082E08093083805C0893718F088E78093B4
:102860000838809108380E940E0880E05FC0C13EA1
:1028700049F4809104388195809304380E949A0A23
:1028800080E054C0C23B29F581E080930438D23007
:1028900088F400FD44C08D2F90E0FC01E75FF74C09
:1028A00020812F3FF1F1FC01E75FF74C2F5F208380
:1028B00080E03CC0D430B9F580910838833018F0FE
:1028C000815080930838809108380E940E0880E07B
:1028D0002DC0C23E21F40E949A0A80E027C0C53C68
:1028E00059F460E070E08BE994E10E942C0280E0F2
:1028F0000E940E0880E01AC0C130B9F409321105F7
:1029000019F481E08093043880915138080F0093C6
:10291000513880E00BC080E009C080E007C080E053
:1029200005C080E003C080E001C081E0DF91CF916D
:102930001F910F9108950F931F93CF93DF93C82F8B
:102940008B01883039F480914438813019F48C2F10
:102950000E94CF138C2F8079803961F481E08093BD
:102960004338D0914438D11129C080911E380E943B
:102970000E0829C0803839F41092433880E00E9454
:102980000E08D0E020C0C130D9F4D0914338DD2307
:1029900051F0809144388130A9F4B8018C2F0E9405
:1029A000CF13D82F10C00733114068F081E0809317
:1029B000533860E080E00E94AE0B05C0D0E003C059
:1029C000D1E001C0D0E08D2FDF91CF911F910F9109
:1029D0000895CF93DF93C82FD62F16C080911E384D
:1029E0000E940E0888EC90E00E944409DD2321F04B
:1029F00080E991E00E94440980E00E940E0888EC82
:102A000090E00E944409C150C111E8CFDF91CF91FD
:102A100008950E94570C0E946B0581110E9442127A
:102A20000E94350A80914E38811180931E3861E0F2
:102A300070E089E69CE00E94E6010895CF92DF9263
:102A4000FF920F931F93CF93DF9380917A389091E9
:102A50007B3821E088399207C9F40EC0EC2FF0E0F2
:102A6000E458FF4F849180530E945E098CE291E00C
:102A70000E944409CF5F01C0C0E0CC3078F360E031
:102A800070E089E69CE00E94990289C143E18F3C95
:102A9000940779F054E18B39950709F0E0C0209153
:102AA0004438213009F0DBC020914338222309F457
:102AB000D6C0C0910B38C23009F120F0C43009F4FF
:102AC000ACC06DC1EC2FF0E0E75FF74CD08185E939
:102AD0000E940E08C11105C084E090E00E944409E4
:102AE00005C08D2F869590E00E94440980E00E94E9
:102AF0000E088D2F90E00E94440951C10E94FC06EF
:102B00008F73082F10E00E94FC0695E2899F212D0B
:102B10001124982F921B9695920F96959695292F92
:102B2000220F220F220F291B821BC1E0D0E06E0171
:102B300002C0CC0CDD1C8A95E2F70E94FC069DECDD
:102B4000899F912D112496959695292F220F220F5A
:102B5000920F891B02C0CC0FDD1F8A95E2F7CC0DC6
:102B6000DD1D0E94FC0690E0BE010E94AC17C80F5C
:102B7000D91FC639D10510F0C5E9D0E08C2F0E94CD
:102B80000E08C8010E944409CE0195958795959538
:102B9000879595958795F82E81111AC0FF24F39497
:102BA00017C0C8010E944409CF19D10912F4C0E02E
:102BB000D0E08C2F0E940E080E94FC06837041F426
:102BC000C8010E944409CE01959587950E940E0880
:102BD000C230D10534F70E94FC069FE4899F912DF5
:102BE0001124969596952DE0929F80191124C1E0AD
:102BF000D0E002C0CC0FDD1F8A95E2F70E94FC06F0
:102C000090E0BE010E949817C80FD91F80E00E9473
:102C10000E08CE010E944409C2C0D0910838DD0FD1
:102C2000D63908F0D5E9C0E010C08D2F0E940E08FB
:102C300083E090E00E944409809108380E940E08C9
:102C400081E490E00E944409CF5FC43070F380EDCE
:102C500092E00E94440980E00E940E08A0C042E079
:102C60008D33940791F40E94B00980911D38882318
:102C700039F060E070E089E69CE00E9499028FC024
:102C800088EE93E00E9444098AC052E0833695079B
:102C900049F480917D380E94800988EE93E00E947B
:102CA00044097DC02DE0873E9207E9F48091803889
:102CB000811175C080911E380E940E0884E690E054
:102CC0000E94440980E00E940E0840910D3828EED1
:102CD00033E0429FC001439F900D11248456910917
:102CE0000E9444095CC042E08338940789F460E0A4
:102CF00083E00E94E91461E083E00E94E91460E04F
:102D000083E00E94E91480ED97E00E94440947C0E7
:102D100082539E4009F041C080918038882351F051
:102D20003EC08C2F0E940E0882E090E00E94440971
:102D3000CF5F01C0C0E080911E38C81790F30E9499
:102D40000E0820910C3886EB91E0AC01249FC00165
:102D5000259F900D11240E944409C0911E380FC078
:102D60008C2F0E940E08CF3128F085E090E00E9461
:102D7000440904C088E090E00E944409C150C11198
:102D8000EFCF80E00E940E0880910C385CEB859FAD
:102D9000C00111240E94440902C00E94A906DF91CB
:102DA000CF911F910F91FF90DF90CF900895F894ED
:102DB000E0E4F0E08081877F808388EDA89584BF80
:102DC00090910001907F9093000121E030E084BF5A
:102DD0002093610082EC80B98FE384B913E018B9C5
:102DE000E0E0F4E088E0808B828B838B848B858BA2
:102DF000E0E4F4E081E0838BC0EAD0E08881826087
:102E00008883898181608983A0EAB6E081E48C931C
:102E10008FEF11968C93A0E0BAE083E411968C9327
:102E200011978EEF90E096968D939C9397971C93B5
:102E300083898160838B0E944F05E0E0F6E08DE19D
:102E4000868385E5828310925A3810925B3882859A
:102E500081608287808581608087888180618883A6
:102E60001083808581608087789481E00E945B0375
:102E700060E070E080E997E10E94E601109250382E
:102E80000E9409150E941203809181389091823826
:102E9000009751F060918338709184380E942C0221
:102EA000109281381092823880915338882329F00B
:102EB00080E00E940E080E943D060E94390910928F
:102EC00050380E941E15DECF80917A3890917B3861
:102ED00023E18F3C920739F468E170E082EE9FE0D5
:102EE0000E942C020895825E9F4099F4909152387E
:102EF000923040F0892F869596959695890F0E947D
:102F0000300A089560E070E089E69CE00E942C029F
:102F1000089560E070E089E69CE00E942C0208952C
:102F2000843021F40E94641780E0089581E00895C0
:102F3000AA1BBB1B51E107C0AA1FBB1FA617B707DF
:102F400010F0A61BB70B881F991F5A95A9F78095FB
:102F50009095BC01CD01089597FB072E16F40094BF
:102F600007D077FD09D00E94981707FC05D03EF4E2
:102F7000909581959F4F0895709561957F4F089525
:102F8000A29FB001B39FC001A39F700D811D1124AA
:102F9000911DB29F700D811D1124911D089503D0C4
:102FA000808199270895FC01E050FC4E0895262F5A
:102FB0000E94D3170080021619F00E94E3170197B0
:102FC00001970895262FAF93BF93E0E0F0E132819F
:102FD00031FDFDCFDC01A050BC4E2C932DE924BF68
:102FE00023E020830196BF91AF910895F894FFCF1D
:102FF00016381338103802010000000000000001EC
:103000000000000000000000010000210123022553
:0930100003270429052C06FF0624
:10301900060B18010101000458294303020237185D
:1030290001050595958E08080D95080101013D01D9
:043039003707020053
:00000001FF
