:100000000C9429010C9446010C9446010C94460171
:100010000C9446010C9476050C9446010C945B05F7
:100020000C9446010C9446010C9446010C94460134
:100030000C9446010C9446010C9446010C94460124
:100040000C9446010C9446010C9446010C94460114
:100050000C9467030C9446010C9446010C944601E1
:100060000C9446010C9446010C9446010C944601F4
:100070000C9446010C9446010C9446013230323205
:100080003130323530343831000105041410111587
:100090001212121212121212121212121212121240
:1000A0001212121212121212121212121212121230
:1000B0001212121212121212121212121212121220
:1000C0001212121212121212121212121212121210
:1000D0001212121212121212121212121212121200
:1000E00012121212121212121212121212121212F0
:1000F00012121212121212121212121212121212E0
:1001000012121212121212121212121212121212CF
:1001100012121212121212121212121212121212BF
:100120001212121212120000000000000000000063
:1001300000000000000000000000000000000000BF
:1001400000000000000000000000000000000000AF
:10015000000000000000000000000000000000009F
:10016000000000000000000000000000000000008F
:10017000000000000000000000000000000000007F
:10018000000000000000000000000000000000006F
:10019000000000000000000000000000000000005F
:1001A000000000000000000000000000000000004F
:1001B0000000000000000000000000FF010102023A
:1001C00003070E19283D597EAEEA0203040506070F
:1001D000090B0D0F1216191D22272C3239404850D9
:1001E0005A646F7B8895A4B4C5D7EB03030303035C
:1001F00004040405050506060707080809090A0B93
:100200000B0C0D0D0E0F10111213141516171819D3
:100210001B1C1D1F2021232526282A2B2D2F31337F
:1002200035383A3C3E414346494B4E5154575A5D4E
:100230006064676B6E72767A7E82868A8F93989DF1
:10024000A1A6ABB0B6BBC1C6CCD2D8DEE4EBF1F808
:10025000FF0011241FBECFEFCDBFDFE3DEBF18E3E9
:10026000A0E0B8E3EBE1F0E302C005900D92A43208
:10027000B107D9F728E3A4E2B8E301C01D92AF3C6F
:10028000B207E1F70E94D8160C94F7170C940000FF
:10029000CF93DF93CDB7DEB72697CDBFDEBF90916A
:1002A0001C3820917A3830917B3827573B4009F42D
:1002B00092E0843019F460934C3821C06623F9F041
:1002C000823019F427E9261B622F26E0E2EFFFEACD
:1002D000DE01119601900D922A95E1F7E82FF0E0EA
:1002E0003197EE0FFF1F21E030E02C0F3D1FE20F92
:1002F000F31F0190F081E02DE90FF11D6083269638
:10030000CDBFDEBFDF91CF910895813019F41092F7
:100310004E380895823019F460934D380895833033
:1003200019F460934B380895843011F460931B38AE
:10033000089581E00895611160932138089566233E
:1003400089F0813061F480917D3890915738891B14
:10035000681B6093573882E08093223803C0635E45
:100360006093203880912038873418F086E4809399
:1003700020380895609345380895FF920F931F9396
:10038000CF93DF93EC018B01F22E20917A383091DC
:100390007B38232B31F0E0917A38F0917B38842F31
:1003A0000995C0937A38D0937B38CD2B39F0E09102
:1003B0007A38F0917B38B8018F2D099581E08093D0
:1003C0005038DF91CF911F910F91FF900895DC017C
:1003D00090915638983098F4E92FF0E0EE0FFF1F17
:1003E000E154F74CA083B1839F5F9093563828E087
:1003F00049E0CD010E94BD018091563808958FEFEC
:100400000895CF93DF93E0915638EE2359F0E150F1
:10041000E0935638F0E0EE0FFF1FE154F74CC08137
:10042000D18102C0C0E0D0E0E0915638EE2349F01F
:10043000F0E03197EE0FFF1FE154F74C808191817E
:1004400002C080E090E02AE049E060E070E00E94B5
:10045000BD01CE01DF91CF9108950F931F93CF93EC
:10046000DF93EC018B010E940102B801CE010E94D2
:10047000E701DF91CF911F910F910895CF93C09124
:100480001D38C1111BC0813C39F460E070E08AE680
:100490009CE00E942D0215C0823C39F460E070E0BF
:1004A00084E692E00E942D020CC0873B49F460E094
:1004B00070E083E89BE00E94E70103C0C1E001C057
:1004C000C1E08C2FCF910895813C41F460E070E051
:1004D0008AE69CE00E942D0280E00895823C41F46F
:1004E00060E070E088EE9DE00E942D0280E00895BB
:1004F000873B41F460E070E089E89BE00E94E701FF
:1005000080E0089581E00895813C41F460E070E06E
:100510008AE69CE00E942D0280E00895823C41F42E
:1005200060E070E083E39EE00E942D0280E0089589
:1005300081E0089580938138909382386093833866
:1005400070938438089590E001C09F5F903168F403
:10055000292F30E0F901EE0FFF1F2E0F3F1FF90189
:10056000EB57F74C20812111F0CF903160F4292F07
:1005700030E0F901EE0FFF1FE20FF31FEB57F74CCE
:10058000808361837283089520E01CC0822F90E0F5
:10059000DC011196AD01440F551FA40FB51FAB57D9
:1005A000B74C3C91FC01EE0FFF1F8E0F9F1FFC010B
:1005B000EB57F74C308311968D919C911297818364
:1005C00092832F5F2F3010F3822F90E0FC01EE0F0B
:1005D000FF1FE80FF91FEB57F74C108211821282B0
:1005E00008950F931F93CF93DF93D82F8B01C09162
:1005F0005638C1500EC0EC2FEE0FFF0BE154F74CF4
:100600000190F081E02DB8018D2F0995882329F004
:10061000C150CC2384F781E001C080E0DF91CF910D
:100620001F910F91089508C06091863870918738A6
:100630000E94F1020E94C402809185388111F4CF9A
:1006400008950E94A3020895BC018091BA380E94C7
:10065000210308951092BA3810925D3810925E38D6
:1006600081E08093503808959091BA3890689093C3
:10067000BA38803171F490619093BA38292F2F7075
:1006800030E02F30310594F49F5F9093BA3881E0C9
:10069000089581110DC0892F8F7E8093BA3895FF00
:1006A00009C080648093BA3881E0089581E008959C
:1006B00080E0089581E0089505C08EED96E20197EF
:1006C000F1F7822F2FEF280F8111F7CF08951F9296
:1006D0000F920FB60F9211242F933F934F935F9376
:1006E0006F937F938F939F93AF93BF93EF93FF93FA
:1006F00081E080930B0680915B38882309F451C018
:10070000E0915A38E13039F5A0E0B1E191968C9151
:1007100091979096AC912091100630911106281B6C
:10072000310987FD3395B0E00E94C117DC01CB0190
:1007300080589F4FAF4FBF4F892F9A2FAB2FBB27AA
:10074000BC01002476956795079476956795079484
:10075000762F602D0DC06091100670911106002457
:10076000769567950794769567950794762F602D13
:10077000F0E0EE0FFF1FDF01A554B74C6D937C93A3
:10078000EA54F74C808191818617970708F4019607
:100790006817790708F401978083918381E080933B
:1007A0005C3881E080935B38FF91EF91BF91AF910E
:1007B0009F918F917F916F915F914F913F912F9179
:1007C0000F900FBE0F901F901895CF93DF9310924C
:1007D0005C389091100680915138890F8093513880
:1007E00080915938882309F458C110925938809162
:1007F0005A3890915338992339F0E0E0F6E090812F
:100800009E7F908310925A38811152C08091223875
:10081000882349F06091BB387091BC386093B6383A
:100820007093B73804C06091B6387091B738605F84
:100830007F4F0024660F771F001C660F771F001C78
:10084000672F702D80E098E50E94991780912138DC
:10085000680F711D675071097695679560935838D8
:1008600080914238882321F08150809342380AC019
:100870006D3140F460E070E084E00E94210385E087
:1008800080934238809153388111FEC0E0E0F6E059
:100890008EE1868385E4828381E080935A381092CA
:1008A0005B38828581608287808581608087ECC02B
:1008B000813009F0E9C080912238882301F140910C
:1008C000BD385091BE384093B8385093B93880E065
:1008D00014C0E82FF0E09A01205F3F4F369527952E
:1008E000329522952F7023273F702327EE0FFF1F8D
:1008F000EE5CF74C208331838F5F883050F380911A
:10090000B8389091B938409696958795929582958A
:100910008F7089279F7089279C0136952795C091F4
:1009200057380C2E000CDD0B2C0F3D1F235131408E
:10093000F90120937D3830937E3840913138A42FCF
:10094000B0E0AA0FBB1FAE5CB74C2D913C91119744
:10095000BC01621B730B9B018D939C934F5F47708F
:1009600040933138220F331F220F331F820F931F02
:100970004091203850E09A012D5E3E4F2C1B3D0BDC
:10098000220F331F821B930B20E009C01816190693
:1009900014F4019703C099230CF401962F5F2330C0
:1009A000A8F318161906ACF577239CF1209130387E
:1009B000121624F4281B2093303856C0880F991F34
:1009C0000397BC0100247695679507947695679503
:1009D0000794762F602D91FF02C061587F4F660FFC
:1009E000672F661F770B1616170614F061E070E08C
:1009F00080E1861B80933038495F5F4FE417F5072D
:100A000024F480915238863979F185E00E942103DF
:100A10002BC09C012C5F3F4FF2F47723E4F420912C
:100A20003038222334F4281B822F845080933038AE
:100A30001BC02CEE281B209330386CEF7FEF681B17
:100A4000790B75956795809158388F3168F086E0FD
:100A50000E94210309C0809158388E3128F060E04F
:100A600070E087E00E942103E0E0F6E08DE18683FC
:100A700085E5828310925A3810925B3882858160B6
:100A8000828780858160808780912238882329F041
:100A900080912238815080932238DF91CF91089540
:100AA00081E080935201809151018111FCCF81E45A
:100AB0008093500108951F920F920FB60F92112448
:100AC0008F9381E080935301809355388F910F90DD
:100AD0000FBE0F901F9018958AB1869586958695C2
:100AE00091E0892781708093803808951F920F923A
:100AF0000FB60F9211248F938BB188608BB981E070
:100B0000809354388F910F900FBE0F901F901895BF
:100B100080938038882341F080E10E94340380E094
:100B200090E00E94240309C080E00E943403809179
:100B30005D3890915E380E94240310925D381092C7
:100B40005E380895CF93DF931092553880915D38C9
:100B500090915E389C012F5F3F4F88279078822BC1
:100B6000932B80935D3890935E38C09180380E94BB
:100B70006C05C81721F0109253380E948805C09167
:100B80005D38D0915E3880915338882341F1BE01A1
:100B900083E00E9421030E941303CF73DD27CD2B36
:100BA00009F069C010922F38E0E0F6E08DE186830D
:100BB00085E5828310925A3810925B388285816075
:100BC0008287808581608087A0EAB0E08C91806117
:100BD0008C9383E0808380858160808739C0809199
:100BE000BA38807F803B31F460E070E081E00E94A1
:100BF000210304C0BE0181E00E9421038091BA3824
:100C000084FF14C085FF04C0CE010E94240320C0CD
:100C10006897F0F010925D3810925E388062809391
:100C2000BA3880E090E00E94240312C0882381F04B
:100C300085FF03C00E942A030BC0629748F08064BE
:100C40008093BA3880E090E00E9424030E942A0337
:100C500080912F3881110BC0E0E0F6E09285916021
:100C6000928790859160908791E0909359388F5F3B
:100C70008F7180932F38DF91CF91089581E0809319
:100C80005201809151018111FCCF89E5809350017F
:100C9000E0E0F6E080818E7F80830E946C05811108
:100CA000FCCF0E942A03E0E4F4E083898160838B17
:100CB00010925C38109255381092543822C0E0E5FA
:100CC000F0E08081897F846080838081816080837F
:100CD000889580818E7F8083809154388111109215
:100CE000533880915C38882339F081E08093223832
:100CF000809359380E94E5038091553881110E94F4
:100D0000A205809153388111DACF82E08093223896
:100D1000E0E4F4E08389887F838BE0E0F6E08DE116
:100D2000868385E5828310925A3810925B388285DB
:100D300081608287808581608087A0EAB0E08C91A5
:100D400080618C9383E080838085816080870E94AE
:100D500050050895E0E5F0E08081897F80838081FF
:100D600081608083889580818E7F808308958F5FE6
:100D70008033A8F080911F388330F1F1E4E0F4E093
:100D8000808180688083E4E2F4E0808180628083F7
:100D900080818061808383E080931F3808958F3045
:100DA000A8F080911F38823039F1E4E0F4E08081CE
:100DB00080688083E4E2F4E08081806280838081C7
:100DC0008F7E808382E080931F3808958823A1F06E
:100DD00080911F38813081F0E4E0F4E08081806808
:100DE0008083E4E2F4E080818F7D808380818F7E48
:100DF000808381E080931F380895E0910638F09158
:100E000007383196FB70F460E0930638F0930738AA
:100E1000809151388B5A80935138E49180915138A8
:100E20008E0F08951F93CF93DF9382E00E945C039F
:100E3000F89480E490E00E94D017853A79F0789495
:100E400080E011C0C12FD0E0CE018F5B9F4F0E9488
:100E5000D017C15AD74C88831F5F01C010E01B31E7
:100E600088F3789481E0DF91CF911F910895CF931B
:100E700082E00E945C03F894C0E00BC08C2F90E0ED
:100E8000FC01E15AF74C60818F5B9F4F0E94D8179D
:100E9000CF5FCB3198F365EA80E490E00E94D817E9
:100EA0007894CF910895CF93DF9300D01F92CDB760
:100EB000DEB719821A8291E09B8390E0A7C0492F88
:100EC00050E0BA01660F771F282F30E002C0359539
:100ED00027956A95E2F72370E1E0F0E0EC0FFD1F43
:100EE000E40FF51F3081222319F0213069F163C02E
:100EF00091110CC041E050E0032E02C0440F551F79
:100F00000A94E2F7E0E4F4E041834683913061F42F
:100F100041E050E0032E02C0440F551F0A94E2F74F
:100F2000E0E2F4E041834683923009F06EC041E094
:100F300050E0BA0102C0660F771F3A95E2F7E0E28F
:100F4000F4E06183668361C0911110C0E32FF0E08B
:100F500041E050E0032E02C0440F551F0A94E2F70F
:100F600040934204E05BFB4F28E02083913081F402
:100F7000E32FF0E041E050E0032E02C0440F551F84
:100F80000A94E2F740932204E05DFB4F28E02083BF
:100F90009230D9F5E32FF0E041E050E0BA0102C011
:100FA000660F771F3A95E2F760932204E05DFB4FEE
:100FB00028E020832AC091110CC041E050E0032EAC
:100FC00002C0440F551F0A94E2F7E0E4F4E04183C5
:100FD0004583913061F441E050E0032E02C0440F9C
:100FE000551F0A94E2F7E0E2F4E041834583923032
:100FF00061F441E050E0BA0102C0660F771F3A95F4
:10100000E2F7E0E2F4E0618365839F5F933008F4E8
:1010100056CF2396CDBFDEBFDF91CF910895CF93FA
:10102000C82F8093523880937F3880915338811134
:1010300002C00E945307C11119C010921F38E4E08A
:10104000F4E080818F778083E4E2F4E080818F7D1B
:10105000808380818F7E80831092A10610922C0A5B
:1010600010922D0A8081877F808331C09091240463
:10107000C150C53930F4E4E2F4E0808188608083B7
:1010800005C0E4E2F4E08081877F808380912404BE
:10109000981719F08CE00E945C032C2F30E0F901C6
:1010A000E454FE4FE491E093A106F901EA5DFE4F9E
:1010B000E491F0E0E0932C0AF0932D0AF901E05757
:1010C000FF4FE491E093A0008C2F0E94B706CF91D0
:1010D0000895CF93C0917F3890915238C91718F472
:1010E0008FEF890F06C09C1718F481E0890F01C0AB
:1010F0008C2F4FEF480F242F30E0B90164547E4FFE
:10110000FB015491491750F49091A106911106C02A
:101110005F3F21F49FEF9093A10613C09091A10629
:10112000951730F4E0EAF6E091819F5F918309C062
:101130009091A106591728F4E0EAF6E091819150C8
:101140009183A9014A5D5E4FFA012491E0912C0A36
:10115000F0912D0A30E0E217F30748F4E0E0FAE0FE
:1011600024A535A52F5F3F4F24A735A70FC0E091D9
:101170002C0AF0912D0A2E173F0740F4E0E0FAE028
:1011800024A535A52150310924A735A79091A106A2
:10119000FB01649196130FC020912C0A30912D0A07
:1011A000FA014491E42FF0E02E173F0721F40E944A
:1011B0000F08C0937F38CF910895883041F4109282
:1011C000B53810922A3880E00E940F0841C0813063
:1011D00031F580912A38811109C060327105C0F162
:1011E0008F5F80932A380E942A0332C08130A1F495
:1011F0006B3B710538F08F5F80932A3880E00E9446
:101200000F0826C06115710519F16270862F880FCD
:101210008E5E0E940F081CC00E94010219C0813816
:1012200011F0813EA9F491E090932A38813E31F487
:101230008091B538865F8093B53805C08091B53808
:101240008F5F8093B5380E942A038BE40E940F08B9
:1012500080E00895982F990F88230CF49095892F9A
:101260000895F89488ED84BF81E08093000178941C
:10127000A895FFCF80915C3881110E94E503809191
:10128000553881110E94A2050895CF93DF930DC0B8
:101290008091503881110FC08AEC98E00197F1F7E6
:1012A0000E943A090E941303CE01EC012197892B79
:1012B00079F781E001C080E0DF91CF910895CF936D
:1012C000DF93C82F811103C0CF5FDFE011C0D6EAE2
:1012D0000FC089E10E940F088D2F90E00E94450900
:1012E00080E00E940F088AEF90E00E944509C150FB
:1012F000C111EFCF8AE992E00E944509DF91CF91B9
:1013000008951F93CF93DF93C9E28C9FC12D1124C1
:10131000C295CF70982F24E6C29F90191124DDEC5E
:101320009D9FD12D1124D695D695D6952D2F220F80
:10133000822F880F880F820F192F181BCC2319F0CA
:101340008C2F0E945F09C11102C0DD2319F08D2F7F
:101350000E945F09812F0E945F09DF91CF911F9149
:101360000895809158380E948109089580911C3811
:1013700090911D38911182E090E0FC01EA5EF74CFB
:10138000208120931A38FC01ED5EF74C8081809318
:1013900019380895DF92EF92FF920F931F93CF9326
:1013A000DF93EC010E94B60930911A386091193828
:1013B000E0911D38F0E0EF5EF74C008180911C3821
:1013C000882349F0013039F4832F90E0860F911D76
:1013D000959587953EC0432F50E0C417D507A4F1DB
:1013E000462F50E04C175D078CF1811102C08C2F05
:1013F00030C0162F131BE02EF12C81E0E81AF10803
:10140000812F90E0B7010E94AD17D62E60937C38F3
:10141000632F20E015C0129FC0011124B7010E9464
:101420009917630FFE01E61BF1091AF4F195E19596
:10143000F1094D2D469550E04E175F074CF42F5F94
:10144000201748F3862F05C0832F03C0862F01C0C5
:10145000862FDF91CF911F910F91FF90EF90DF903A
:10146000089580934F380E940F080895CF93DF931B
:101470000E941207882309F45BC0EFE5F8E380813E
:1014800080931C38218186E198E3DC012C93228132
:10149000C3E1D8E32883238140E158E3DA012C93A8
:1014A0002481DC0111962C93258129832681DA0180
:1014B00011962C932781DC0112962C9380858A83C8
:1014C0008185DA0112968C93828580931D388385FD
:1014D00080934C38848580934B38858580931B3866
:1014E000868580934E38878580934D388089809398
:1014F0000B388189A9E0B8E38C93828911968C938B
:10150000838980930838848980930D3885898093F6
:101510002038868980935738878980932138808D39
:1015200080930F38818D80930E38828D809345385B
:10153000DF91CF910895CF93DF93EFE5F8E38091AA
:101540001C38808386E198E3DC012C912183C3E180
:10155000D8E32881228340E158E3DA012C912383E8
:10156000DC0111962C91248329812583DA011196BF
:101570002C912683DC0112968C9187838A81808747
:10158000DA0112968C91818780911D388287809133
:101590004C38838780914B38848780911B388587AE
:1015A00080914E38868780914D38878780910B389F
:1015B000808BA9E0B8E38C91818B11968C91828B02
:1015C00080910838838B80910D38848B80912038EE
:1015D000858B80915738868B80912138878B8091BD
:1015E0000F38808F80910E38818F80914538828F9F
:1015F0000E943707DF91CF910895CF93DF93EB01DE
:101600008830A9F410922B3880E00E940F08809156
:101610008038811162C080912B388F5F80932B3886
:1016200060E070E08DED98E00E94E70156C0982FD1
:10163000907F903BA1F550912B38451760F19B01AD
:10164000A9E5B0E60E94C117281B390B36952795EE
:10165000820F931F0024880F991F001C880F991F69
:10166000001C892F902D6DE5689F9001699F300DBA
:101670001124CE01821B930B029749F45F5F5093B4
:101680002B38451750F188E30E940F0826C082E1ED
:101690000E940F0822C080E00E940F081EC0903EEA
:1016A00081F480912B38882349F0481738F060E0A6
:1016B00070E08DED98E00E94E7010FC00E940102EA
:1016C0000CC08A3051F46091B53880912B38F90103
:1016D00009950E949B0A0E94010280E0DF91CF9150
:1016E000089528E431E043E00E94FD0A089528E4CB
:1016F00031E044E00E94FD0A089525E831E044E02D
:101700000E94FD0A08952BE931E041E00E94FD0AA4
:1017100008952FE931E042E00E94FD0A08952AEB86
:1017200031E041E00E94FD0A0895409158384D3162
:10173000A0F080E001C08E5F282F30E0F901E55F66
:10174000FF4490814917B8F7F901E65FFF44E08153
:10175000F0E0E757FF4F8491089580E008950F93DC
:101760001F93CF939091583891509C3120F480E092
:101770000E94530799C0C82FC295CF708F70909167
:101780005338911103C0C33008F0C2E0873030F401
:10179000E82FF0E0E757FF4FE49159C0873011F58B
:1017A0000091293810E00F5F1F4F0E94FD069DEC4D
:1017B000899F912D112496959695292F220F220FFE
:1017C000920F891B9801280F311DC90166E070E056
:1017D0000E94AD1780932938E82FF0E0E757FF4FBC
:1017E000E49135C08830D1F480915338811102C022
:1017F000E3E001C0EFE06E2351F48091293890E0DE
:10180000019666E070E00E94AD1780932938E09160
:101810002938F0E0E757FF4FE49119C08091533821
:10182000882321F00E94950BE82F11C066958BEA62
:10183000689F812D11248695982F990F890F681B19
:10184000E62FF0E0EE0FFF1FE757FF4FE491C330A4
:1018500001F54091283850E04F5F5F4F9A01A5E9AC
:10186000B7ED0E94C117929582958F7089279F705E
:10187000892763E1689F9001699F300D1124CA0197
:10188000821B930B80932838A82FB0E0A850B04556
:10189000CC91CC2319F0C13021F002C0E0E001C0AE
:1018A000EE0F8E2F0E945307CF911F910F91089535
:1018B000CF93C091523889E18C0F873908F080E0CE
:1018C0000E940F0885E00E945C038C2F0E940F0885
:1018D000CF9108950F931F93CF938B01883091F48C
:1018E00080E00E940F0860E080910F380E94AF0BEB
:1018F00010924938012B09F05BC181E08093533885
:10190000C0E061C1813061F46931710508F452C1F0
:101910008093533880910F380E94AF0BC0E053C1C1
:10192000833079F580914E38882371F090914D384D
:1019300042EC51E0949F9001959F300D1124621765
:10194000730710F080931E38602F80910F380E942B
:10195000AF0BC091453882EC91E0C89F9001C99FC0
:10196000300D1124CC2309F42EC12017310708F0C3
:1019700023C160E070E08CE89EE00E942D02C0E090
:1019800022C1813BF1F481E090E00E94CA090E94EB
:101990000F08C0914B38C11111C180911C388111C1
:1019A00003C088E190E002C080E090E008171907CA
:1019B00008F409C161E070E083EE9FE00E942D020F
:1019C00002C1813E41F461E070E083EE9FE00E943D
:1019D0002D02C0E0F8C0813849F480911E3890E0B3
:1019E0000E94CA090E940F08C0E0EDC0813C49F482
:1019F0006091523870E083EE9FE00E942D02C0E0BB
:101A0000E2C0823B99F480911B3890911D3891116E
:101A100080914C38811105C086E990E00E94CA0986
:101A200001C086E90E940F08C0E0CDC0823E29F4C3
:101A300080E00E940F08C0E0C6C0823C41F466E925
:101A400070E083EE9FE00E942D02C0E0BCC08339AD
:101A500029F480E00E940F08C0E0B5C0833C41F447
:101A600060E070E08EE392E00E942D02C0E0ABC027
:101A7000843C51F40E94580C60E070E08CE89EE0D9
:101A80000E942D02C0E09FC08D3B11F40E943109DD
:101A90008F3C41F460E070E089E991E00E942D0202
:101AA000C0E091C08A3BA9F4672B99F4C0911D381E
:101AB000CC2341F00E94580C10921D380E949B0AC2
:101AC000C0E081C060E070E087E79BE00E94E70132
:101AD0007AC0C0911D38C11173C08A3C41F40E9484
:101AE000580C81E080931D380E949B0A6CC0833B98
:101AF00039F460E070E080ED93E10E942D0263C054
:101B0000873CB9F420910F38922F92959F709F5F78
:101B1000937030E1939FC00111242F70822B80932A
:101B20000F3860E00E94AF0B0E949B0A0E94580C85
:101B30004AC0873B59F581E080934A38C8018F73CA
:101B40009927892BE9F430910F38232F2F702F5FBD
:101B500085E7289F812D1124922F981B9695890F38
:101B6000869586958695482F440F942F990F990F47
:101B7000940F890F281B822F307F832B80930F387F
:101B8000602F80910F380E94AF0B1DC0873E29F453
:101B900010924A380E949B0A16C0853C99F40E9414
:101BA000580C60E070E08CE994E10E942D020BC0BB
:101BB000C0E009C0C0E007C0C0E005C0C0E003C08D
:101BC000C1E001C0C1E08C2FCF911F910F9108950A
:101BD000AB01813C41F460E070E08AE69CE00E9449
:101BE0002D0280E00895823C41F460E070E084E8DA
:101BF00092E00E942D0280E00895813BD1F49B0188
:101C000036952795A1E1B2E40E94C1179695879574
:101C100096958795969587956EE3689F9001699F45
:101C2000300D112442175307D1F40E94580C80E064
:101C30000895813EB1F49B0136952795A1E1B2E468
:101C40000E94C11796958795969587959695879545
:101C50008F5F80930D380E949B0A80E0089580E09A
:101C6000089581E00895AB01813C41F460E070E0AB
:101C70008AE69CE00E942D0280E00895823C41F4B7
:101C800060E070E08EE392E00E942D0280E0089513
:101C9000813BD1F49B0136952795A1E1B2E40E94E6
:101CA000C1179695879596958795969587956EE336
:101CB000689F9001699F300D112442175307D1F49A
:101CC0000E94580C80E00895813EB1F49B01369546
:101CD0002795A1E1B2E40E94C11796958795969544
:101CE0008795969587958F5F80930C380E949B0A05
:101CF00080E0089580E0089581E00895CF93C09139
:101D0000523880E00E940F0883E00E945C038C2F11
:101D10000E940F08CF9108950F931F93CF93DF93E5
:101D2000C82F8B01873B21F480E00E940F0821C05F
:101D300080798039C9F4909116388C2F8F70823059
:101D400059F420911738921708F0292F80914E38B6
:101D5000811107C0822F05C080911738891708F0BC
:101D6000892F0E940F0805C0803819F480E00E9476
:101D70000F08C83031F460E080910E380E94AF0B3C
:101D800053C0C13071F40931110508F4A7C081E0D6
:101D900080935338602F80910E380E94AF0BD0E0B3
:101DA000A2C0C33039F4602F80910E380E94AF0B6F
:101DB000D0E099C0C33C51F40E94580C60E070E040
:101DC0008AE69CE00E942D02D0E08DC0C43CA1F4C4
:101DD000D0914E38DD2341F06D2F70E083EE9FE00F
:101DE0000E942D02D0E07FC060911E3870E083EE2B
:101DF0009FE00E942D0277C0C43B61F40E947E0EDA
:101E00001092BA3861E070E083EE9FE00E942D02EC
:101E1000D0E069C0C53C41F466E970E083EE9FE024
:101E20000E942D02D0E05FC0D0911D38D11158C062
:101E3000C73CB9F480910E38982F92959F709F5FA0
:101E4000937040E1949F900111248F70822B8093B6
:101E50000E3860E00E94AF0B0E949B0A0E94580C53
:101E600042C0C73B59F581E080934A38C8018F735F
:101E70009927892BE9F430910E38232F2F702F5F8B
:101E800085E7289F812D1124922F981B9695890F05
:101E9000869586958695482F440F942F990F990F14
:101EA000940F890F281B822F307F832B80930E384D
:101EB000602F80910E380E94AF0B15C0C73E29F4E9
:101EC00010924A380E949B0A0EC0CA3B59F460E047
:101ED00070E08FE89BE00E94E70105C0D0E003C0FE
:101EE000D1E001C0D1E08D2FDF91CF911F910F91F3
:101EF0000895CF93AB01C0911D38C1115AC08830ED
:101F000039F410924938109246381092473858C028
:101F1000813B69F4809149388150833008F04BC08F
:101F200083E08093493880934838C1E049C0853BBD
:101F300031F59B0136952795A1E1B2E40E94C117C6
:101F40009695879596958795969587956EE3689F64
:101F50009001699F300D11244217530789F5809134
:101F600049388A3F68F58B5F8093493880934838B9
:101F700010924638109247380E94580C21C0813088
:101F8000E1F4809146389091473801968093463825
:101F90009093473888389E4098F0109246381092B7
:101FA000473880914938882351F0815080934938CF
:101FB00007C0C1E005C0C1E003C0C1E001C0C82F37
:101FC0008C2FCF910895AF92BF92CF92DF92EF9274
:101FD000FF920F931F93CF93DF93C82F8B01B09085
:101FE0001A38A090193880911C38882319F0C090B5
:101FF0007C3802C0CC24C394F0901B3890911D38DB
:102000009111F0904C38FF2061F041E0F41659F046
:1020100080911E388A1560F00F2EF6E9DF2EF02D24
:1020200008C0DA2C06C00F2EF6E9DF2EF02D01C015
:10203000DA2CE0904938B8018C2F0E94790FD091AA
:102040004938DD2339F0E11005C080915238809382
:102050002E380BC0EE2049F0D11107C060E070E0CF
:102060008AE69CE00E942D0202C2C83011F0CA30FC
:10207000E9F410924438CA3019F400911E3810E087
:102080008B2D90E08017910738F48A2D90E0081787
:10209000190710F400931E38C8010E94CA090E9453
:1020A000310A81E080930538D0E0E1C1C13C41F4C0
:1020B00060E070E08AE69CE00E942D02D0E0D7C18B
:1020C000C23C91F4809152388D1520F48D2D0E94E0
:1020D000310A04C080911E380E94310A8091523822
:1020E00080932E38D0E0C3C1C43C59F480E00E94F4
:1020F0000F0860E070E08CE89EE00E942D02D0E0C6
:10210000B6C18FE48C0F823008F08FC0D0911C389C
:10211000DD23D1F09801ABEABAEA0E94C11792958B
:1021200082958F7089279F7089279C01220F331F0A
:10213000820F931F880F991F880F991F880F991F6F
:102140000817190709F084C1D11109C0609110382E
:1021500070E0C8010E949917892B09F088C1011508
:102160001105A1F4C23B21F48FEF809305383DC0E7
:10217000809152388A1520F08FEF8093053835C052
:10218000B81698F181E0809305382FC080911038FF
:1021900090E046E351E0849F9001859F300D949F2D
:1021A000300D11242017310740F4209152382A15A0
:1021B00020F08FEF8093053818C04CE652E0849FE2
:1021C0009001859F300D949F300D11242017310709
:1021D00060F480915238B81640F00E94580C60E0CC
:1021E00070E08CE89EE00E942D02309152382091E0
:1021F00005384C2D2403C0011124830F911D0E942A
:10220000CA0980931E3890915238891721F0A8127C
:1022100002C00E947E0E80911E380E94310A809179
:10222000523880932E38D0E022C18FE18C0F82305B
:1022300038F480910538819580930538D0E017C136
:10224000C13009F057C00932110519F481E08093BB
:102250000538DD23B9F02D2F30E0215031094091B0
:102260002E38429FC001439F900D11246091483841
:1022700070E00E94AD17611101C061E060937F388A
:1022800060934F3880917F3890E020915238821BC4
:10229000910960912C3870912D386F5F7F4F60935A
:1022A0002C3870932D38009709F4D4C02CF42E37B5
:1022B00030F440E051E010C040E052E00DC040E496
:1022C00050E00AC0569547959C01992314F42F5F5E
:1022D0003F4FC901959587950097A1F74617570776
:1022E00008F0BAC00E94690810922C3810922D385C
:1022F000D0E0BDC0C530F9F420915238293508F43A
:10230000ADC0822F90E0801B910B382F883591054E
:1023100024F08739910518F403C038E501C036E987
:10232000263929F485E90E940F08D0E0A0C0309337
:102330007F38D0E09CC0C630C1F490915238809173
:102340004F38981708F08CC0090F111D90E08017C6
:1023500091073CF00835110514F0C80102C088E56A
:1023600090E080937F38D0E082C0C73099F490919C
:102370007F3880915238891728F48F5F80937F3897
:10238000D0E075C0981708F06DC0815080937F38F9
:10239000D0E06DC0D0911D38D11166C0C33CC9F4E6
:1023A00081E090911C38911180E080931C380E944C
:1023B0009B0A0E947E0E8091523890E00E94CA09CA
:1023C00080931E380E94310A8091523880932E38B3
:1023D0004EC0C33B69F4012B09F049C0FF2021F036
:1023E0000F2EF6E9DF2EF02D8D2D0E94310A3FC011
:1023F000C33E29F480911E380E94310A38C0C53C82
:1024000051F480E00E940F0860E070E08CE994E1F4
:102410000E942D022CC0C73B39F460E070E081E7D8
:102420009BE00E94E70123C0CA3C49F480915238E6
:1024300080934E380E949B0A0E94580C18C0CA3BD9
:10244000A9F460E070E08DE79BE00E94E7010FC017
:10245000D0E00DC0D0E00BC0D0E009C0D0E007C094
:10246000D0E005C0D0E003C0D1E001C0D1E08D2FA5
:10247000DF91CF911F910F91FF90EF90DF90CF9060
:10248000BF90AF900895CF93C0E014C08C2F0E94EE
:102490000F0883E190E00E9445098C2F86950E94E9
:1024A0000F0883E190E00E9445090E946C05882393
:1024B00029F0CF5FC03450F381E001C080E0882371
:1024C000F9F060917D3880915738681B81E00E9457
:1024D0009F010E949B0AC6E908C08C2F0E940F082A
:1024E00084E090E00E944509C150C111F6CF0AC0B6
:1024F0008C2F0E940F088DE090E00E944509C1508A
:10250000C111F6CFCF9108950F931F93CF93DF930F
:10251000C82F8B01D09149380E94790FDD2359F0E3
:10252000D0914938D11107C060E070E08AE69CE0A4
:102530000E942D022FC1C83029F481E08093033816
:10254000D0E028C1C23C21F410924938D0E022C129
:10255000C13B21F5012B69F4809102388E3620F0C1
:102560008FEF8093033805C0823018F481E08093A8
:102570000338D091023880910338D80FD0930238B5
:10258000D11104C081E08093023804C1DF3608F421
:10259000FAC08EE680930238D0E0FCC0C13E39F428
:1025A00080910338819580930338D0E0F3C0C23B1B
:1025B00069F481E08093033880910238823008F416
:1025C000E4C0815080930238D0E0E4C0C13009F00B
:1025D000DEC00932110519F481E08093033880913F
:1025E00027380E942A0990E0EC01CC0FDD1FCC0FA8
:1025F000DD1FCC0FDD1FC81BD90B809126380E9430
:102600002A0990910138989FC0011124CD2FC90F3C
:10261000809125380E942A0990910038989FC00126
:102620001124C90F209102388C2F90E0820F911D48
:1026300020914938213019F520914638309147389A
:1026400036952795329522952F7023273F702327A3
:1026500044E750E0421B530B849F9001859F300D4F
:10266000949F300D1124AFE9B6E40E94C1179695EE
:102670008795929582958F7089279F7089270E94F0
:102680000F0800FD08C00E94FD0681709091273858
:10269000890F809327389091263880912438890FAC
:1026A000809326380E94FD069FE6899F912D112474
:1026B00092959F7025E2929F80191124982F809106
:1026C0002538980F909325380E94FD068F7371F47A
:1026D0000E94FD069FE4899F912D11249695969561
:1026E0002DE0929F80191124809324388091013825
:1026F000882349F00E94FD068F7329F480910138E8
:102700008150809301380E94FD06811119C00E94FA
:10271000FD0695E7899F212D1124982F921B9695F0
:10272000920F969596959695392F330F232F220F5A
:10273000220F230F920F891B8093013810922638A5
:1027400080910038833048F00E94FD068F7129F493
:10275000809100388150809300380E94FD06D82F68
:10276000DF77B9F40E94FD069BEA899F912D112421
:1027700096959695292F220F920F292F220F821BB3
:102780008093003807C0D0E005C0D0E003C0D1E09E
:1027900001C0D0E08D2FDF91CF911F910F9108954F
:1027A0000F931F93CF93DF93C82F8B01D0910B38DA
:1027B00081E080934438D33019F48C2F0E94841226
:1027C000C83029F481E08093043880E0B0C0C13C77
:1027D00041F460E070E08AE69CE00E942D0280E017
:1027E000A6C0C23C69F48D2F90E0019665E070E0D0
:1027F0000E94AD1780930B380E949B0A80E097C01F
:10280000C13BB1F5D230C8F400FD86C08D2F90E0F9
:10281000FC01E75FF74C208130910438231B2830FE
:1028200018F02F3F21F402C028E001C02EEFFC0178
:10283000E75FF74C208380E07AC0D43009F06EC0A7
:102840009091083880910438890F8093083882303D
:1028500020F482E08093083805C0893718F088E7B3
:1028600080930838809108380E940F0880E05FC08C
:10287000C13E49F4809104388195809304380E94C8
:102880009B0A80E054C0C23B29F581E08093043864
:10289000D23088F400FD44C08D2F90E0FC01E75F4A
:1028A000F74C20812F3FF1F1FC01E75FF74C2F5FE0
:1028B000208380E03CC0D430B9F580910838833063
:1028C00018F0815080930838809108380E940F08D2
:1028D00080E02DC0C23E21F40E949B0A80E027C008
:1028E000C53C59F460E070E08CE994E10E942D024F
:1028F00080E00E940F0880E01AC0C130B9F40932AC
:10290000110519F481E08093043880915138080F43
:102910000093513880E00BC080E009C080E007C020
:1029200080E005C080E003C080E001C081E0DF916D
:10293000CF911F910F9108950F931F93CF93DF9322
:10294000C82F8B01883039F480914438813019F4D4
:102950008C2F0E94D0138C2F8079803961F481E014
:1029600080934338D0914438D11129C080911E38CA
:102970000E940F0829C0803839F41092433880E053
:102980000E940F08D0E020C0C130D9F4D091433864
:10299000DD2351F0809144388130A9F4B8018C2FA7
:1029A0000E94D013D82F10C00733114068F081E087
:1029B0008093533860E080E00E94AF0B05C0D0E008
:1029C00003C0D1E001C0D0E08D2FDF91CF911F91E6
:1029D0000F910895CF93DF93C82FD62F16C0809103
:1029E0001E380E940F0888EC90E00E944509DD2304
:1029F00021F080E991E00E94450980E00E940F08E3
:102A000088EC90E00E944509C150C111E8CFDF91E8
:102A1000CF9108950E94580C0E946C0581110E946C
:102A200043120E94360A80914E38811180931E38DD
:102A300061E070E08AE69CE00E94E7010895CF9291
:102A4000DF92FF920F931F93CF93DF9380917A3899
:102A500090917B3821E089399207C9F40EC0EC2FA0
:102A6000F0E0E458FF4F849180530E945F098CE2AC
:102A700091E00E944509CF5F01C0C0E0CC3078F3FF
:102A800060E070E08AE69CE00E949A0289C143E11E
:102A9000803D940779F054E18C39950709F0E0C046
:102AA00020914438213009F0DBC0209143382223A3
:102AB00009F4D6C0C0910B38C23009F120F0C430FF
:102AC00009F4ACC06DC1EC2FF0E0E75FF74CD081AA
:102AD00086E90E940F08C11105C084E090E00E94C1
:102AE000450905C08D2F869590E00E94450980E03C
:102AF0000E940F088D2F90E00E94450951C10E944D
:102B0000FD068F73082F10E00E94FD0695E2899F55
:102B1000212D1124982F921B9695920F969596959C
:102B2000292F220F220F220F291B821BC1E0D0E088
:102B30006E0102C0CC0CDD1C8A95E2F70E94FD06F6
:102B40009DEC899F912D112496959695292F220F02
:102B5000220F920F891B02C0CC0FDD1F8A95E2F76E
:102B6000CC0DDD1D0E94FD0690E0BE010E94AD1758
:102B7000C80FD91FC739D10510F0C6E9D0E08C2F96
:102B80000E940F08C8010E944509CE0195958795BE
:102B90009595879595958795F82E81111AC0FF24F4
:102BA000F39417C0C8010E944509CF19D10912F446
:102BB000C0E0D0E08C2F0E940F080E94FD068370B9
:102BC00041F4C8010E944509CE01959587950E9460
:102BD0000F08C230D10534F70E94FD069FE4899F9B
:102BE000912D1124969596952DE0929F8019112490
:102BF000C1E0D0E002C0CC0FDD1F8A95E2F70E9451
:102C0000FD0690E0BE010E949917C80FD91F80E011
:102C10000E940F08CE010E944509C2C0D091083819
:102C2000DD0FD73908F0D6E9C0E010C08D2F0E9423
:102C30000F0883E090E00E944509809108380E94C7
:102C40000F0881E490E00E944509CF5FC43070F323
:102C500080ED92E00E94450980E00E940F08A0C02C
:102C600042E08E33940791F40E94B10980911D389F
:102C7000882339F060E070E08AE69CE00E949A02C6
:102C80008FC088EE93E00E9445098AC052E08436E6
:102C9000950749F480917D380E94810988EE93E080
:102CA0000E9445097DC02DE0883E9207E9F480919D
:102CB0008038811175C080911E380E940F0884E60B
:102CC00090E00E94450980E00E940F0840910D3875
:102CD00028EE33E0429FC001439F900D112484569B
:102CE00091090E9445095CC042E08438940789F448
:102CF00060E083E00E94EA1461E083E00E94EA144D
:102D000060E083E00E94EA1480ED97E00E944509AC
:102D100047C083539E4009F041C08091803888238A
:102D200051F03EC08C2F0E940F0882E090E00E947C
:102D30004509CF5F01C0C0E080911E38C81790F3ED
:102D40000E940F0820910C3886EB91E0AC01249F83
:102D5000C001259F900D11240E944509C0911E3885
:102D60000FC08C2F0E940F08CF3128F085E090E033
:102D70000E94450904C088E090E00E944509C150C6
:102D8000C111EFCF80E00E940F0880910C385CEBFE
:102D9000859FC00111240E94450902C00E94AA0615
:102DA000DF91CF911F910F91FF90DF90CF90089509
:102DB000F894E0E4F0E08081877F808388EDA89537
:102DC00084BF90910001907F9093000121E030E05A
:102DD00084BF2093610082EC80B98FE384B913E053
:102DE00018B9E0E0F4E088E0808B828B838B848BE1
:102DF000858BE0E4F4E081E0838BC0EAD0E0888159
:102E000082608883898181608983A0EAB6E081E459
:102E10008C938FEF11968C93A0E0BAE083E4119627
:102E20008C9311978EEF90E096968D939C93979745
:102E30001C9383898160838B0E945005E0E0F6E05B
:102E40008DE1868385E5828310925A3810925B3833
:102E500082858160828780858160808788818061AA
:102E600088831083808581608087789481E00E94C8
:102E70005C0360E070E081E997E10E94E701109255
:102E800050380E940A150E94130380918138909156
:102E90008238009751F060918338709184380E9495
:102EA0002D021092813810928238809153388823F5
:102EB00029F080E00E940F080E943E060E943A0915
:102EC000109250380E941F15DECF80917A38909171
:102ED0007B3823E1803D920739F469E170E083EEAD
:102EE0009FE00E942D020895835E9F4099F4909187
:102EF0005238923040F0892F869596959695890F95
:102F00000E94310A089560E070E08AE69CE00E9429
:102F10002D02089560E070E08AE69CE00E942D0298
:102F20000895843021F40E94651780E0089581E0BF
:102F30000895AA1BBB1B51E107C0AA1FBB1FA61700
:102F4000B70710F0A61BB70B881F991F5A95A9F752
:102F500080959095BC01CD01089597FB072E16F43E
:102F6000009407D077FD09D00E94991707FC05D07F
:102F70003EF4909581959F4F0895709561957F4F90
:102F80000895A29FB001B39FC001A39F700D811D42
:102F90001124911DB29F700D811D1124911D089562
:102FA00003D0808199270895FC01E050FC4E0895DC
:102FB000262F0E94D4170080021619F00E94E417F1
:102FC000019701970895262FAF93BF93E0E0F0E1BA
:102FD000328131FDFDCFDC01A050BC4E2C932DE998
:102FE00024BF23E020830196BF91AF910895F89408
:022FF000FFCF11
:102FF20016381338103802010000000000000001EA
:103002000000000000000000010000210123022551
:0930120003270429052C06FF0622
:10301B00060B18010101000458294303020237185B
:10302B0001050595958E08080D95080101013D01D7
:04303B003707020051
:00000001FF
